:100000000C942A000C9447000C9447000C94470071
:100010000C9447000C9447000C946A010C94470020
:100020000C9447000C9447000C9447000C94470034
:100030000C9447000C9447000C9447000C94470024
:100040000C9447000C9447000C9447000C94470014
:100050000C94470011241FBECFE5D8E0DEBFCDBF12
:1000600010E0A0E6B0E0E8ECF8E002C005900D92E8
:10007000AC36B107D9F720E0ACE6B0E001C01D9284
:10008000A137B207E1F70E9449000C9462040C9476
:1000900000008FB780688FBF0E9404020E949902FF
:1000A00080E690E00E9451020E94B6020E94DF02A8
:1000B00001960E947B026AE080E00E946402F6CF13
:1000C000683008F06FC0843008F06CC0813001F1F6
:1000D00030F08230B1F1833009F44CC008954130E2
:1000E00059F42AB381E090E002C0880F991F6A9505
:1000F000E2F7822B8ABB08952AB381E090E002C028
:10010000880F991F6A95E2F7809582238ABB08952C
:10011000413059F427B381E090E002C0880F991F65
:100120006A95E2F7822B87BB089527B381E090E0C0
:1001300002C0880F991F6A95E2F78095822387BBDA
:100140000895413059F424B381E090E002C0880F53
:10015000991F6A95E2F7822B84BB089524B381E04E
:1001600090E002C0880F991F6A95E2F7809582237C
:1001700084BB0895413059F421B381E090E002C07E
:10018000880F991F6A95E2F7822B81BB089521B3EE
:1001900081E090E002C0880F991F6A95E2F7809590
:1001A000822381BB0895683008F06FC0843008F066
:1001B0006CC0813001F130F08230B1F1833009F44C
:1001C0004CC00895413059F42BB381E090E002C057
:1001D000880F991F6A95E2F7822B8BBB08952BB38A
:1001E00081E090E002C0880F991F6A95E2F7809540
:1001F00082238BBB0895413059F428B381E090E00D
:1002000002C0880F991F6A95E2F7822B88BB089578
:1002100028B381E090E002C0880F991F6A95E2F749
:100220008095822388BB0895413059F425B381E03D
:1002300090E002C0880F991F6A95E2F7822B85BB78
:10024000089525B381E090E002C0880F991F6A9558
:10025000E2F78095822385BB0895413059F422B39B
:1002600081E090E002C0880F991F6A95E2F7822B27
:1002700082BB089522B381E090E002C0880F991FED
:100280006A95E2F78095822382BB0895843078F4E2
:10029000813041F028F0823039F0833039F0089510
:1002A0006ABB089567BB089564BB089561BB089558
:1002B000843078F4813041F028F0823039F0833096
:1002C00039F008956BBB089568BB089565BB089528
:1002D00062BB08951F920F920FB60F9211242F93B5
:1002E0003F934F935F936F937F938F939F93AF93BE
:1002F000BF93EF93FF93E0916F00F0917000309700
:1003000009F00995FF91EF91BF91AF919F918F9166
:100310007F916F915F914F913F912F910F900FBE01
:100320000F901F901895882321F08EB580648EBDA4
:1003300008958EB58F7B8EBD089586B597B50895C7
:100340001DBC1CBC0895CF93DF93EC018FB58E7F4D
:100350008FBD8FB58D7F8FBD8EB5877F8EBD8EB5DE
:100360008F7E8EBD8FB5877F8FBD8FB58B7F8FBD05
:1003700040E066E083E00E9460009EB58981987F3E
:100380008770892B8EBD88810E9493010E94A001F5
:1003900017BC16BC89B7806289BFDF91CF910895E1
:1003A0009093700080936F000895CF93C82F40E022
:1003B00060E081E00E94D3008FEC97E00197F1F7B5
:1003C00000C0000041E061E081E00E94D3008FECBA
:1003D00097E00197F1F700C000006C2F80E00E94C9
:1003E00058018FEC97E00197F1F700C0000040E062
:1003F00061E081E00E94D3008FEC97E00197F1F774
:1004000000C00000CF91089541E060E081E00E94CB
:10041000600041E061E081E00E9460008FE39CE9C0
:100420000197F1F700C000006FEF80E00E944601E5
:1004300088E30E94D5018CE00E94D50181E00E94F2
:10044000D5010895CF93C82F41E060E081E00E947C
:10045000D3008FEC97E00197F1F700C0000041E076
:1004600061E081E00E94D3008FEC97E00197F1F703
:1004700000C000006C2F80E00E9458018FEC97E0D4
:100480000197F1F700C0000040E061E081E00E94C8
:10049000D3008FEC97E00197F1F700C00000CF91F7
:1004A00008950F931F93CF938C01C0E003C00E9467
:1004B0002202CF5FF801EC0FF11D80818111F7CF8F
:1004C000CF911F910F910895813031F070F08230FB
:1004D00031F0833039F00AC090E4960F07C090E104
:1004E000960F04C090E5960F01C0962F892F806863
:1004F0000E94D5010895CF93DF93CDB7DEB7609703
:100500000FB6F894DEBF0FBECDBF4AE050E0BE018B
:100510006F5F7F4F0E942204CE0101960E9451021C
:1005200060960FB6F894DEBF0FBECDBFDF91CF91BE
:10053000089581E00E94D501089580916C00882380
:1005400061F00E949D0190936E0080936D0081E0A8
:100550000E94930110926C0008950E94A00180E017
:100560000E94930181E080936C000895CF93DF9304
:1005700000D0CDB7DEB781E0898382E08A83CE01E7
:1005800001960E94A3018DE992E00E94D00141E012
:1005900065E081E00E9460000F900F90DF91CF91A5
:1005A000089541E065E081E00E94D30085E08A95EE
:1005B000F1F740E065E081E00E94D30008950E94D9
:1005C000D10260916D0070916E0080E090E00E9419
:1005D000940320E030E04AE652E40E94F3020E94D5
:1005E0006503CB0108950E9407030C94E8030E9461
:1005F000E10358F00E94DA0340F029F45F3F29F04C
:100600000C94D10351110C941C040C94D7030E9438
:10061000F90368F39923B1F3552391F3951B550B17
:10062000BB27AA2762177307840738F09F5F5F4FC5
:10063000220F331F441FAA1FA9F335D00E2E3AF004
:10064000E0E832D091505040E695001CCAF72BD01C
:10065000FE2F29D0660F771F881FBB1F261737076D
:100660004807AB07B0E809F0BB0B802DBF01FF279F
:1006700093585F4F3AF09E3F510578F00C94D103A8
:100680000C941C045F3FE4F3983ED4F38695779571
:100690006795B795F7959F5FC9F7880F911D969558
:1006A000879597F90895E1E0660F771F881FBB1FB4
:1006B000621773078407BA0720F0621B730B840B61
:1006C000BA0BEE1F88F7E09508950E94010488F0A8
:1006D0009F5798F0B92F9927B751B0F0E1F0660F06
:1006E000771F881F991F1AF0BA95C9F714C0B13047
:1006F00091F00E941B04B1E008950C941B04672F35
:10070000782F8827B85F39F0B93FCCF38695779575
:100710006795B395D9F73EF490958095709561955E
:100720007F4F8F4F9F4F0895E89409C097FB3EF489
:1007300090958095709561957F4F8F4F9F4F99232E
:10074000A9F0F92F96E9BB279395F69587957795AC
:100750006795B795F111F8CFFAF4BB0F11F460FF6C
:100760001BC06F5F7F4F8F4F9F4F16C0882311F0C4
:1007700096E911C0772321F09EE8872F762F05C0D8
:10078000662371F096E8862F70E060E02AF09A9573
:10079000660F771F881FDAF7880F9695879597F968
:1007A000089597F99F6780E870E060E008959FEFF3
:1007B00080EC089500240A941616170618060906F8
:1007C000089500240A9412161306140605060895C7
:1007D000092E0394000C11F4882352F0BB0F40F44F
:1007E000BF2B11F460FF04C06F5F7F4F8F4F9F4F8F
:1007F000089557FD9058440F551F59F05F3F71F011
:100800004795880F97FB991F61F09F3F79F0879577
:100810000895121613061406551FF2CF4695F1DF00
:1008200008C0161617061806991FF1CF8695710590
:10083000610508940895E894BB2766277727CB01C4
:1008400097F908954532510520F4423010F00C9488
:100850002D04FB011082CB010895BB274A3031F4EF
:10086000992322F4BDE2909581959F4F0C94390411
:10087000BB27FB015527AA27880F991FAA1FA4177A
:1008800010F0A41B83955051B9F7A05DAA3308F06E
:10089000A95DA193009779F7B111B1931192CB01A2
:1008A0000C945204DC01FC01672F71917723E1F76E
:1008B000329704C07C916D9370836291AE17BF072D
:0808C000C8F30895F894FFCF7E
:0C08C8002044697374616E63653D20007C
:00000001FF
